:020000040800F2
:1030000000040020453100087534000877340008BA
:103010007B3400087F34000883340008000000007F
:1030200000000000000000000000000089340008DB
:1030300087340008000000008B3400088D3400083D
:103040008F34000891340008933400089534000848
:1030500097340008993400089B3400089D34000818
:103060009F340008A1340008A3340008A5340008E8
:10307000A7340008A9340008AB340008AD340008B8
:10308000AF340008B1340008B3340008B534000888
:10309000553C0008B7340008B9340008BB340008B8
:1030A000BD340008BF340008C1340008C334000830
:1030B000C5340008C7340008C9340008CB34000800
:1030C000CD340008CF340008D1340008D3340008D0
:1030D000D5340008D7340008D9340008DB340008A0
:1030E000DD340008DF340008E1340008E334000870
:1030F000E5340008E7340008E9340008EB34000840
:10310000ED340008EF340008F1340008F33400080F
:10311000F5340008F7340008F9340008FB340008DF
:10312000FD340008FF3400080135000803350008AD
:10313000DFF80CD001F032FD0048004705350008EB
:10314000000400204FF48A70134908604FF4F070B7
:10315000124908601248134908604FF0BB30124909
:1031600008601248124908604FF0BB3011490860EE
:103170001148124908601248124908600E48124965
:10318000086041F211004FF0204108604FF40070D8
:103190000E4908600E480047141002401810024003
:1031A000BB44BBB40014014004140140BB4444B40C
:1031B0000018014004180140BBBBBB44001C014087
:1031C0004444BBBB041C014000200140040000A09B
:1031D000313100081220954908607047944895499C
:1031E00048609548086000BF00BF9248006810F42E
:1031F000003FFAD000BF8F48006810F0007FFAD07F
:1032000000BF8C48406800F00C000828F9D17047D6
:103210004FF4405089490860704745F2555088493D
:1032200008600220486040F69F7088604AF6AA2035
:1032300008604CF6CC400860704782484FF0E021AF
:10324000486106200861002088610846006940F056
:103250000100086170477748C06940F080507549A7
:10326000C8617948006840F4807077490860714807
:10327000006A40F001006F49086200BF6D48006AB3
:1032800010F0020FFAD000BF6A48006A40F4014013
:10329000684908626D48008840F010006C49A1F848
:1032A000040800206949091D088047F6FF70091DC0
:1032B00008800020654914310880091D0880091D17
:1032C00008803C20091D088001206149A1F8000800
:1032D0004FF0E020D0F8000140F008004FF0E0216E
:1032E000C1F800015A48B0F8040820F0100057490E
:1032F000088000BF5548008810F0200FFAD05248CF
:10330000006820F4807050490860704700BF00BF1B
:1033100000BF00BF70474748806940F0040045493E
:10332000886104204B49086000204B49C1F804081B
:103330004048806940F008003E49886100204749C4
:1033400008604FF033304449C1F8040C39488069B3
:1033500040F01000374988610020414908604FF46F
:103360008000486000BF00BF704700BF00BF00BFC3
:10337000704700BF00BF00BF00BF00BF00BF00BF5D
:1033800000BF00BF00BF00BF00BF00BF00BF00BF45
:1033900000BF704700BF00BF00BF00BF00BF00BF3D
:1033A00000BF00BF00BF00BF00BF70472148C06919
:1033B00040F000601F49C8610846C06940F0805075
:1033C000C8612148006840F480701F4908600020EF
:1033D000244908802449A1F8340C0846B0F8340C7C
:1033E00040F00300A1F8340C1748006820F4807006
:1033F000154908601B48001D008810F0040F07D015
:103400001A48006840F004004FF0E021C1F80001C4
:10341000704700B5FFF7DEFEFFF7E0FEFFF7F8FEAE
:10342000FFF779FF00BD12487047000000200240FE
:1034300002841D00001002408200010108ED00E03E
:1034400000300040FFB9DB0000700040042800405D
:10345000002000400008014000000140000C014035
:1034600000100140306C00400060004000E100E0CE
:1034700000512502704700BFFEE700BFFEE700BF16
:10348000FEE700BFFEE77047704770477047704720
:103490007047704770477047704770477047704774
:1034A0007047704770477047704770477047704764
:1034B0007047704770477047704770477047704754
:1034C0007047704770477047704770477047704744
:1034D0007047704770477047704770477047704734
:1034E0007047704770477047704770477047704724
:1034F0007047704770477047704770477047704714
:103500007047704770B5FFF784FF00F0EEF800F0E9
:1035100059F94FF40071164800F03EFC4FF4007169
:10352000144800F034FC00F01BFA012000F050FABF
:103530001CE0104C0021084600F034F9002505E09D
:1035400014F8010B00F0CBF8681C85B2102DF7DBE6
:103550000121002000F026F9002505E014F8010BF8
:1035600000F0BDF8681C85B2102DF7DBE1E7000024
:10357000000000606002006000BF00BF0100A0F119
:103580000100FBD1704710B5CD4800686FF30F0004
:1035900044F244410844CB49C1F8040CC8480830FF
:1035A000006820F08000C1F80C0CC54808300068A5
:1035B00040F04000C249083108600A20FFF7DCFFF4
:1035C000C148006840F04000BF4908600A20FFF78A
:1035D000D3FFBB48001D0068C0F303200401BA48B4
:1035E000006820F04000B84908600A20FFF7C4FFD7
:1035F000B548006840F04000B34908600A20FFF772
:10360000BBFFAF48001D0068C0F303200443AE4871
:10361000006820F04000AB49C1F80C080846D0F81B
:10362000040C6FF30F0043F233310844A549C1F88D
:10363000040C204610BD10B500BFFFF7A4FF10F02A
:10364000800FFAD110BD10B504469D4808300068BF
:1036500020F040009B49C1F80C0C9B48006840F0EA
:103660004000C1F80C080846D0F80C0C64F30B209D
:103670009349083108600A20FFF77EFF92480068EE
:1036800020F040008F49C1F80C080A20FFF774FFB2
:1036900010BD10B50446FFF7CEFF8948083000681A
:1036A00020F080008749C1F80C0C2011FFF7CBFFF8
:1036B0002046FFF7C8FF10BD10B50446FFF7BBFF5B
:1036C0007F480830006840F080007E49C1F80C0C4B
:1036D0002011FFF7B8FF2046FFF7B5FF10BD10B56A
:1036E00004462046FFF7E8FF10BD70B577488069B3
:1036F00040F0C0007549886173480C38006820F0BC
:10370000706040F040706F49C1F800086C48001FBD
:10371000006820F07F4040F04C50C1F8000C084693
:10372000D0F8040C6FF30F0043F2333108446449BE
:10373000086043F69820FFF71FFF614808300068D3
:1037400020F080005F49C1F80C0C0320FFF77BFFDD
:1037500041F20400FFF710FF0320FFF774FF64201D
:10376000FFF70AFF0320FFF76EFF0220FFF76BFF52
:103770002820FFF78EFF0C20FFF78BFF0620FFF7B6
:1037800088FF4020FFF785FF514C002504E020789A
:10379000FFF7A5FF6D1C641C402DF8D38020FFF7B8
:1037A00078FF70BD70B504460D4605EB850004EB4F
:1037B000C000C6B206F07F008030C6B23046FFF7C8
:1037C00068FF70BD10B50120FFF763FF00210846B8
:1037D000FFF7E8FF10BD10B5044603E014F8010B35
:1037E000FFF77DFF20780028F8D110BD70B50446A2
:1037F0000D4604FB05F0142190FBF1F400260BE0CC
:10380000052C04DD0520FFF76AFF641F03E0E0B22A
:10381000FFF765FF02E0761CAE42F1DB00BF70BD32
:103820002DE9F04104460D46174629462046FFF78C
:10383000B9FF002612E0052F04DD0520FFF74FFF3A
:103840007F1F0AE0F8B2FFF74AFF02E00020FFF70F
:1038500046FF3046761C1028F8DB761C102EEADB7B
:10386000BDE8F081F0B500250124002304E004EB5D
:1038700084077C005F1CFBB2571E9F42F7DC1BE0F5
:10388000B1FBF4F66DB926B1012506F130070770DA
:103890000AE0012C02D13027077005E020270770CD
:1038A00002E006F130070770401CB1FBF4F704FB9F
:1038B00017110A27B4FBF7F4002CE1D1F0BD00008A
:1038C000041C0140001001400C180140001002408F
:1038D0001251000830B500F00F02FF4B042404FB26
:1038E0000233D3F8001C10F0800F09D048F6CF73D4
:1038F0000B40F94C042505FB0244C4F8003C08E0E9
:103900004CF68F730B40F44C042505FB0244C4F8BD
:10391000003C30BD70B500F00F02EF4C042505FBF4
:103920000244D4F8003C10F0800F0CD001F03004B9
:103930005C4048F6BF752C40E74D042606FB025557
:10394000C5F8004C0BE001F440545C404BF68F7519
:103950002C40E14D042606FB0255C5F8004C70BD15
:10396000002004E0DD49095CDD4A1154401CB0F53B
:10397000805FF7D3DB49C96941F40001D94AD161BD
:10398000D949096841F01002D7490A60D749096846
:1039900041F480114FF0E022C2F80011D149896949
:1039A00041F02001CF4A9161D149D1F8001421F4AE
:1039B0007061CF4AC2F800141146D1F8001441F4E6
:1039C000E061CC4A11600421CA4A14321160704788
:1039D0000121C94A11600021BF4AC2F8441C18B134
:1039E0001115C54A116002E00321C34A11607047F6
:1039F0000020C149091D08604FF41C40B649C1F8B8
:103A0000400C3020BD4908800020B349C1F8500C5B
:103A1000BA480088BA4909680860B8480088083080
:103A2000B649088008460088B54909688860B348E7
:103A300000880830B149088000BF4FF48050B04979
:103A40000968C8604FF44850AB494039086080208D
:103A5000A149C1F84C0C7047A748006840F0080025
:103A60009D49C1F8400C0846D0F8400C40F00400D5
:103A7000C1F8400C704770479F48006820F008006C
:103A80009549C1F8400C7047704740F080019A4A50
:103A90000C321160704700BF704710B5837803F097
:103AA0000F028188837813F0800F0AD0934B1B8814
:103AB000934C246804EB021423604B1C23F0010197
:103AC00020E08E4B1B888E4C246804EB0214A3600C
:103AD0003E290ED901F11F0323F01F010123C3EB7F
:103AE000411343F40043864C246804EB0214E36062
:103AF00008E04B1C23F001014B02814C246804EBCD
:103B00000214E3607D4B1B880B447C4C2380C378FC
:103B100013F0030306D0012B07D0022B08D0032B90
:103B200011D10DE04FF400710DE04FF480610AE017
:103B300000210123934000230BB141F4807102E086
:103B40004FF4C06100BF00BF1143634B042404FB6A
:103B50000233C3F8001C10BD704710B5044643F291
:103B600030012046FFF7D6FE10BD10B504460021F7
:103B70002046FFF7CFFE10BD10B504462046FFF7E4
:103B8000A9FE10BD10B5044641F210012046FFF712
:103B9000C1FE10BD10B5044643F230012046FFF7C8
:103BA000B9FE10BD2DE9F04304460D4604F00F06A2
:103BB0005348006800EB061080685249022202FB5D
:103BC00000194F48006800EB0610C068C0F30907F1
:103BD0004FF0000805E059F8041B2980AD1C08F1DE
:103BE0000108781CB8EB500FF5D34FF44051204634
:103BF000FFF790FE3846BDE8F0832DE9F043044618
:103C00000D46164604F00F083D48006800EB08100A
:103C100000683C49022202FB0019002704E02888C2
:103C200049F8040BAD1C7F1C701CB7EB500FF6D38A
:103C30003348006800EB0810466030212046FFF74B
:103C400069FE3046BDE8F0832B4808300068C0F3B9
:103C50000A00704770B52848001D046814F4806F8E
:103C600008D0FFF7C5FE00F0B1F86FF4806022497C
:103C7000091D086014F4006F08D0FFF7EDFE00F096
:103C8000B0F86FF400601C49091D086014F4805FEF
:103C900008D0FFF7F1FE00F0ACF86FF48050164941
:103CA000091D086014F4007F04D06FF400701249FD
:103CB000091D08605CE06FF400400F49091D0860B1
:103CC00004F00F050448042101FB0500D0F8006C46
:103CD00016F4004F35D017E0005000405251000854
:103CE000600400600010024014E400E000E100E025
:103CF0000010014000140140405C004004020060DC
:103D0000000200600060004026F4004048F68F7119
:103D100008402449042202FB0511C1F8000C224886
:103D200050F8250068B116F4006F05D01E4850F811
:103D300025100120884704E01B4850F82510022078
:103D4000884716F0800F13D026F0800048F68F7158
:103D500008401449042202FB0511C1F8000C124866
:103D600050F8250020B1104850F82510032088474E
:103D70000E480068044610F4004F9CD170BD0C4AF8
:103D800010600C4A116070470B49086070470B4A7D
:103D900010600B4A116070470A4A10600A4A1160AD
:103DA000704700000050004054610008445C00402F
:103DB000180200601C0200603002006020020060F7
:103DC00024020060280200602C02006010B500F0A0
:103DD0005BFD2148006820F480402049C1F80C0CAC
:103DE00010BD1D48006840F400401C49C1F80C0C8F
:103DF00070471948006820F400401849C1F80C0CBD
:103E000070471748007838B11348006840F4804084
:103E10001249C1F80C0C06E00F48006820F48040FD
:103E20000E49C1F80C0C704710B5044600F0B7FC01
:103E300010BD10B5044600F0E1FC10BD704770479E
:103E400070477047704770477047704770477047BA
:103E500070477047704700000C0C014000000140A3
:103E600037020060F948006820F44050F849C1F872
:103E70000C0C0020F7490870012070470020F6491B
:103E800008700120704710B5F4480068402801D937
:103E9000402401E0F1480468F14800682044B0F58E
:103EA000005F06D9EE480068C0F500540420E949D7
:103EB0000870EC48EA4A1268811822468120FFF710
:103EC0009CFEE74800682044E5490860E348006834
:103ED000001BE2490860E4488068001BE2498860F2
:103EE000DE48006810B90320DA490870D948007824
:103EF000022809D0D548006820F48050D449C1F880
:103F00000C0C0020D849087310BD10B5D748D6490D
:103F100008600D228120FFF770FE0520CD49087052
:103F200010BD10B5CE480068D14909780844B0F5F5
:103F3000005F0AD9CA4800684042CD490870052090
:103F4000C44908700220FFF71DFE002407E0C9489D
:103F5000005DC34909682144C24A5054641CC448E6
:103F600000788442F3D3BE480068C1490978084408
:103F7000BB490860B9480068BD490978401AB7498B
:103F80000860B9488068BA490978401AB64988601B
:103F9000B248006818B1AF48007805280BD1AB488B
:103FA000006820F40050AA49C1F80C0C0020AE496A
:103FB0000873FFF7AAFF10BD10B5A9480068AC4907
:103FC00009780844B0F5005F0AD9A5480068404266
:103FD000A749087005209F4908700220FFF7D2FD0D
:103FE00000240DE09E48006820449E49085CA149D9
:103FF000095D884203D000209F49086004E0641CEA
:104000009B4800788442EDD300BF954800689849EA
:1040100009780844924908609048006894490978F2
:10402000401A8E4908609048806891490978401A82
:104030008D4988608948006818B18648007805284D
:1040400009D18D48006808B9012000E000208649A8
:104050000873FFF75AFF10BD70B58848056880489F
:1040600000688349097808448549096888420CD961
:10407000834800687A490968401A7D49087005201C
:10408000744908700220FFF77DFD002406E079489E
:10409000005D7349096821446854641C74480078C1
:1040A0008442F4D36E4800687149097808446C4929
:1040B00008606A4800686E490978401A67490860D4
:1040C000694880686A490978401A67498860634886
:1040D000006818B15F48007805280BD15B4800687C
:1040E00020F400505A49C1F80C0C00205E490873B6
:1040F000FFF70BFF70BD10B56248407C01066148B8
:10410000807C41EA00415F48C07C41EA00215D4873
:10411000007D41EA00046002514908605948C17DB0
:10412000807D41EA002460024C490860554880685F
:10413000096888420CD08120FFF724FD0220FFF798
:1041400021FD022048490873FFF7DFFE002010BD63
:104150000120FCE710B54B48806830B90220424985
:104160000873FFF7D2FE002010BD4648007B10F018
:10417000800F09D10220FFF705FD02203A4908739C
:10418000FFF7C3FE0020EFE70120EDE710B53D4843
:10419000806837490978884203D23A4880683449B0
:1041A00008703348027833498120FFF726FD032049
:1041B000284908702C4880682D490978401A2A49F6
:1041C00088600020087310BD10B52E48806858B173
:1041D0002C48007B10F0800F03D08120FFF7D2FC29
:1041E00002E00220FFF7CEFC00201F490873FFF712
:1041F0008CFE10BD10B5FFF7ADFF00B910BD7020EB
:104200001C49087000204870022088700020C87087
:104210000871487188710A20C871002008724872BC
:104220008872C87230200873012048730020887398
:10423000C8730874487412200D490870FFF7A6FF70
:10424000DCE710B5FFF786FFF0B910BD0C0C01409C
:10425000000001401402006045020060100200608E
:104260000C02006060040060BF240060555342539C
:1042700015020060602400600802006020020060F7
:1042800024020060A02400600020F449087080200F
:104290004870002088700120C8702020087180209C
:1042A000487100208871C8714D20087249204872F9
:1042B000412088725420C872202008734873887384
:1042C000C87353200874542048744D2088743020DB
:1042D000C874332008755620487532208875202010
:1042E000C875087644204876492088765320C876D9
:1042F0004B2008773120487720208877C8773120F5
:1043000081F820002E2081F82100302081F8220041
:10431000202081F823002420D1490870FFF736FFC0
:1043200010BD10B5FFF716FF00B910BD0320CB4933
:104330000870002048708870C8700420C849087050
:10434000FFF724FFF1E710B5FFF704FF00B910BD38
:104350000020C24908700620487000208870C8708C
:10436000087148718871C8710820BD490870FFF74D
:104370000DFFECE710B5FFF7EDFE00B910BD002012
:10438000B6490870487088700F20C8700020087106
:104390004871022088710020C8710820B049087057
:1043A000FFF7F4FEEAE710B5FFF7D4FE00B910BD41
:1043B0000020AA490870487088700820C870002042
:1043C0000871487188711020C8710220087200209D
:1043D0004872022088720020C8720C20A049087020
:1043E000FFF7D4FEE3E770B59E4804689E48006876
:1043F000402801D9402501E09B4805689B4800689A
:1044000028449B490968884207D999480068974918
:104410000968451A042097490870944800682118D3
:104420002A468120FFF7E9FB9048006828448F491D
:1044300008608D480068401B8B4908608E48806882
:10444000401B8D4988608848006810B9032089495D
:10445000087088480078022809D08848006820F44D
:1044600080508749C1F80C0C00208349087370BD47
:1044700070B5844804687C480068402801D940250C
:1044800001E0794805687948006828447E49096850
:10449000884207D97C48006874490968451A042095
:1044A000744908707148006821182A468120FFF776
:1044B000A4FB6E48006828446C4908606A4800689C
:1044C000401B694908606C488068401B6A498860E5
:1044D0006548006810B9032066490870654800788F
:1044E000022809D06548006820F480506449C1F86A
:1044F0000C0C00206049087370BD10B5002404E066
:104500005648005D61490855641C5548007884424E
:10451000F6D3534800781F2878D15C4800685C497E
:104520008842F9D1594840685349486057488068E3
:1045300088605648407B38B95448807B012803DBAB
:104540005248807B102806DD00BF01204A490873CD
:10455000FFF7DBFC22E14D48C07B25283ED013DC71
:10456000152830D007DC10B3032823D0042824D02A
:10457000122871D122E01A2826D01B2821D01E280B
:1045800020D02328F5D126E05A2821D008DC28287D
:1045900027D02A2844D02F287ED05528E9D116E0EC
:1045A000D02877D0D32876D0D428E2D1CDE0FFF739
:1045B0000BFEE9E0FFF71EFEE6E0C6E7FFF741FE6F
:1045C000E2E0C2E7C1E7C0E7FFF7ABFEDCE0BCE733
:1045D000FFF7B9FED8E0FFF7E6FED5E0FFF7CAFE29
:1045E000D2E0FFF788FDD0B12848007B10F0800FA3
:1045F0000DD02248006840F480502149C1F80C0CCD
:1046000002201C490870FFF73EFC08E0BDE00220D4
:10461000FFF7B8FA022018490873FFF776FCB3E0F9
:10462000FFF769FDB8B11948007B10F0800F0AD17F
:104630001248006840F400501149C1F80C0C0120E8
:104640000C49087007E08120FFF79CFA02200A4914
:104650000873FFF75AFC97E095E01DE060240060C6
:104660001502006028020060100200600C02006069
:104670002C02006014020060BF2400600C0C01409A
:1046800000000140180200601C020060A0240060CD
:104690005553424317E03CE0FFF72DFD90B16F48C2
:1046A000007B10F0800F05D101206D4908706D4925
:1046B000086007E08120FFF765FA02206A49087365
:1046C000FFF723FC60E0FFF716FD08B36348007BAB
:1046D00010F0800F14D06548006820B96448006865
:1046E0006449096888476448006840F48050634919
:1046F000C1F80C0C02205A490870FFF7B9FE07E018
:104700000220FFF73FFA022057490873FFF7FDFB2D
:104710003AE0FFF7F0FCB8B15048007B10F0800F92
:104720000AD15548006840F400505449C1F80C0CB7
:1047300001204B49087007E08120FFF723FA02208F
:1047400049490873FFF7E1FB1EE0FFF7D4FCC8B14D
:104750004248007B10F0800F0CD04748006840F4BE
:1047600080504649C1F80C0C02203D490870FFF703
:104770003AFE07E00220FFF705FA02203A490873E3
:10478000FFF7C3FB00E0E0E608E08120FFF7FAF95D
:104790000220FFF7F7F906203149087010BD10B567
:1047A0002F480078022806D0032818D0042819D0F2
:1047B000052821D11CE02948C07B282804D0D02816
:1047C00005D0D42809D105E0FFF75DFB05E0FFF730
:1047D0004FFE02E0FFF707FE00BF00BF0CE0FFF74F
:1047E00094FB09E08120FFF7CDF9FFF78EFB03E092
:1047F00000201B49087000BF00BF10BD10B5204944
:104800000220FFF7CFF91F4908701548007810B152
:10481000012817D102E0FFF770FE1CE00F48C07BB3
:104820002A2804D02F2805D0D32809D105E0FFF786
:1048300078FB05E0FFF7C0FB02E0FFF70DFC00BFCF
:1048400000BF08E00220FFF79DF902200649087327
:10485000FFF75BFB00BF00BF10BD0000A02400609D
:104860001402006008020060BF2400600C020060B7
:1048700018020060300200600C0C01400000014092
:1048800060240060150200600020BA490880BA491F
:104890000870BA4908704FF00110B949086000204B
:1048A000B8490860704710B5B7490020FFF77AF99A
:1048B00010BD10B5B5488088082801DD082401E046
:1048C000B2488488B148224601688020FFF795F9F4
:1048D0000446AE4800682044AC4908600846808819
:1048E000001B888010BD10B5A84801680020FFF7A4
:1048F00059F90446A54800682044A44908600846C0
:104900008088001B888010BD10B5002211468020D1
:10491000FFF773F910BD10B59D490020FFF742F96C
:1049200010BD10B50446082C6FD2DFE804F06E0409
:10493000D9EF6E6EEEEDFFF7B6FF93490978C8091F
:10494000FFF70AF99048C088904988808E4800781F
:10495000C0F3411020B1012878D0022877D1B4E00B
:10496000894840780C2873D2DFE800F0060B8813E2
:10497000881B2C313846587800F094F900B9A6E02D
:104980007DE0002000F0F6F900B9A0E0FFF7BCFFE1
:1049900075E0012000F0EEF900B998E0FFF7B4FFF0
:1049A0006DE079480078C0F3040040B9764880781B
:1049B00040F0800070490870FFF7A6FF00E086E035
:1049C00000BF5CE000F01AF900B980E057E0002079
:1049D000FFF7D8F800206D49888050E06A480078D9
:1049E000C0F3040028B9654868490860FFF761FF13
:1049F00000E06CE000BF42E063480078C0F30400D0
:104A000048B900F025FA08B961E0B1E0FFF77CFF92
:104A1000FFF7F7F900E05AE000BF30E05A480078AD
:104A2000C0F30400012816D15448007888B15648D4
:104A300000795849097888420BDA53480079564979
:104A4000084452490860FFF734FF03E019E03DE0F5
:104A500014E03CE000E03AE000BF10E04A48007893
:104A6000C0F30400012806D100F0BAFA00B92EE024
:104A7000FFF74AFF00E02AE000BF00E027E000BFA8
:104A80002CE041480078C0F3040001281BD13E48C7
:104A90000079B8B93C484078FE2808D0FF2810D1EA
:104AA000FFF7E0F910B1FFF72FFF0DE009E0FFF786
:104AB000E5F928B1364835490860FFF7FAFE03E00A
:104AC00000BF00BF03E002E008E000E000BF80207C
:104AD000FFF758F800202D49888000BF00BF47E04D
:104AE00029480078C00920D128488088F8B1FFF70C
:104AF000FAFE26488088D0B923480078C0F34110D8
:104B000028B1012810D103E02AE02DE010E0DEE713
:104B10001D480078C0F30400012802D0022802D109
:104B200000E0D4E7D3E7D2E7D1E7FFF7F4FE1FE0D8
:104B300015480078C009012802D1FFF7BAFE0EE03F
:104B40000D48007810F0800F09D00B48007800F075
:104B50007F000949087008460078FEF796FF07E0D5
:104B60008020FFF717F803E00020FFF713F800BFDD
:104B700000BF10BD340200603602006037020060E2
:104B8000380200603C020060580200605002006081
:104B9000450200604002006041020060064C074D83
:104BA00006E0E06840F0010394E8070098471034FD
:104BB000AC42F6D3FEF7C0FA3C6200085C62000823
:104BC00030B58C1810F8013B13F00F0201D110F82A
:104BD000012B1B0906D110F8013B03E010F8015B23
:104BE00001F8015B521EF9D101E001F8012B5B1EB7
:104BF000FBD1A142E6D3002030BD000070B52448AF
:104C00000078C0F3040010B1012833D12FE0204810
:104C1000C078012804D0022807D0032823D118E047
:104C20001C481D49086012251FE01C4C002604E0AA
:104C3000207808B160880444761C15488078B0421A
:104C4000F6D1207808B9002070BD1348046065884B
:104C50000BE00F488078124908440F490860084665
:104C60000068057801E00020EEE700BF04E000BF27
:104C70000020E9E70020E7E700BF07488088A84256
:104C800001D905498D80FFF714FE0120DCE7000003
:104C9000580200609461000850020060A66100089C
:104CA000C761000870B52B480078C0F3040020B13C
:104CB000012808D0022847D11AE027482749086070
:104CC000FFF7F7FD42E02648007870B121480079EF
:104CD00024490978884208DA0020234908800846D8
:104CE0001E490860FFF7E5FD01E0002070BD2DE0E2
:104CF0001848007900F08F0414F0800F05D004F0FC
:104D00000F014FF48030884001E00120A0400546AB
:104D10001348007810B914F00F0F12D1134800682F
:104D200028420ED012480068284201D0012000E03D
:104D300000200D490880084608490860FFF7B9FDC2
:104D400001E00020D2E701E00020CFE700BF012012
:104D5000CCE700005802006034020060500200609E
:104D600037020060400200604502006038020060C7
:104D70003C02006070B5044630480078C0F304007F
:104D800020B101281DD0022852D11CE02B484088B8
:104D9000012813D144B1FEF777FE2948008840F07E
:104DA0000200274908800BE00020FEF76DFE244832
:104DB000008820F002002249088001E0002070BD38
:104DC00038E00020FBE71D48007900F08F0515F062
:104DD000800F05D005F00F014FF48030884001E0CE
:104DE0000120A840064617480078F0B115F00F0FD3
:104DF0001BD015480068304217D01048408890B941
:104E000044B12846FEF7BEFE1048006830430F4903
:104E100008600CE02846FEF7BDFE0C480068B04371
:104E20000A49086003E00020C9E70020C7E701E065
:104E30000020C4E700BF0120C1E700005802006065
:104E40003402006037020060380200603C020060FB
:104E50002DE9F0415A48807800287ED0594D79E0FC
:104E60006878022804D004284FD005286ED14EE07F
:104E7000687953498978884243D1514880785249AA
:104E80000870287951490870002703E00020504934
:104E9000C8557F1C042FF9D3012714E00120B84026
:104EA0004C490968084202D03846FEF75EFE4FF4CE
:104EB0008030B84047490968084203D047F0800075
:104EC000FEF753FE7F1C102FE8D34FF0011041492D
:104ED00008600020404908600120FEF7DCFDE87909
:104EE00010F0C00F06D03D48008840F001003B495B
:104EF000088009E03948008820F00100374908801F
:104F000002E06888054425E020E0EE781EE0E6B97E
:104F1000A87800F08F0717F0800F05D007F00F0179
:104F20004FF48030884001E00120B8400446294811
:104F300000682043274908602846FEF7AEFD384642
:104F4000FEF70BFE3846FEF717FE00BF00BF2878BD
:104F5000054400BF2878002800E001E080D124E06B
:104F6000002019490870012714E00120B8401949B0
:104F70000968084202D03846FEF7F7FD4FF480304A
:104F8000B84014490968084203D047F08000FEF792
:104F9000ECFD7F1C102FE8D34FF001100D49086085
:104FA00000200D490860FEF776FD05488078064927
:104FB0000978884202D10120BDE8F0810020FBE79A
:104FC00058020060A66100083702006040020060DD
:104FD00041020060380200603C0200603402006060
:104FE0002DE9F05F3D48007810B90020BDE8F09F42
:104FF0004FF0000B3A4C6CE06078022804D0042893
:105000000BD0052861D11BE06079344909788842CA
:1050100002D0608804445CE057E0A578E6784FF061
:10502000000830480079A84209D12E488078B04263
:1050300005D14FF0010B2C48475D01464E5544E029
:1050400028480079A8423FD1A07800F08F0919F0D4
:10505000800F05D009F00F014FF48030884002E046
:10506000012000FA09F082461E488078B04217D12C
:105070001E48006840EA0A001C4908601C48006895
:1050800020EA0A001A4908602046FEF706FD484655
:10509000FEF763FD4846FEF76FFD48EA0A0813E095
:1050A000BE4211D118EA0A0F0ED11048006820EA5A
:1050B0000A000E4908600E48006820EA0A000C4900
:1050C00008604846FEF751FD00BF00BF2078044449
:1050D00000BF207800288FD1584687E7370200604C
:1050E000A6610008580200604102006038020060BA
:1050F0003C02006002E008C8121F08C1002AFAD171
:1051000070477047002001E001C1121F002AFBD147
:105110007047000000000000000010101010101078
:10512000101018181818181818181C1C1C1C1C1CF7
:105130001C1C1E1E1E1E1E1E1E1E1F1F1F1F1F1F8D
:105140001F1F000000000000000000000000000021
:105150000000EB3C904D53444F53352E300002017C
:1051600001000110004000F80200010001000000F1
:105170000000000000000000297419022753544D5C
:105180003332785F5553422046415431322020203B
:1051900033C98ED1BCF07B8ED9B800208EC0FCBD47
:1051A000007C384E247D248BC199E83C01721C831D
:1051B000EB3A66A11C7C26663B07268A57FC7506DF
:1051C00080CA0288560280C31073EB33C98A461026
:1051D00098F7661603461C13561E03460E13D18B12
:1051E0007611608946FC8956FEB82000F7E68B5E92
:1051F0000B03C348F7F30146FC114EFE61BF0000EC
:10520000E8E600723926382D741760B10BBEA17D17
:10521000F3A66174324E740983C7203BFB72E6EB40
:10522000DCA0FB7DB47D8BF0AC9840740C4874130B
:10523000B40EBB0700CD10EBEFA0FD7DEBE6A0FCAC
:105240007DEBE1CD16CD19268B551A52B001BB006E
:1052500000E83B0072E85B8A5624BE0B7C8BFCC7DF
:1052600046F03D7DC746F4297D8CD9894EF2894EA2
:10527000F6C606967DCBEA030000200FB6C8668B03
:1052800046F86603461C668BD066C1EA10EB5E0FDB
:10529000B6C84A4A8A460D32E4F7E20346FC135682
:1052A000FEEB4A525006536A016A10918B461896DB
:1052B0009233D2F7F691F7F64287CAF7761A8AF256
:1052C0008AE8C0CC020ACCB80102807E020E7504C6
:1052D000B4428BF48A5624CD136161720B40750180
:1052E00042035E0B497506F8C341BB000060666A65
:1052F00000EBB04E544C44522020202020200D0AB8
:1053000052656D6F7665206469736B73206F7220D0
:105310006F74686572206D656469612EFF0D0A44C3
:1053200069736B206572726F72FF0D0A507265733C
:105330007320616E79206B657920746F20726573BC
:10534000746172740D0A00000000000000ACCBD83C
:1053500055AAF8FFFFFFFFFFFF0F0000000000004D
:10536000000000000000000000000000000000003D
:10537000000000000000000000000000000000002D
:10538000000000000000000000000000000000001D
:10539000000000000000000000000000000000000D
:10575000000053544D3332785F55534220280000E7
:105760000000000000000000000000000000000039
:105770000000E54541444D45202054585420000088
:1057800000002100BB320000DC83BB320200570066
:105790000000E552006500610064004D000F0073D9
:1057A00065002E0074007800740000000000FFFF08
:1057B000FFFFE54541444D452020545854200087C3
:1057C00099714537453700004F68453702005E0044
:1057D00000004152006500610064004D000F00733D
:1057E00065002E0074007800740000000000FFFFC8
:1057F000FFFF524541444D45202054585420008716
:10580000997145374C370000324D4C3702005F002C
:105810000000000000000000000000000000000088
:105820000000000000000000000000000000000078
:105830000000000000000000000000000000000068
:105840000000000000000000000000000000000058
:105850000000000000000000000000000000000048
:105860000000000000000000000000000000000038
:105870000000000000000000000000000000000028
:105880000000000000000000000000000000000018
:105890000000000000000000000000000000000008
:1058A00000000000000000000000000000000000F8
:1058B00000000000000000000000000000000000E8
:1058C00000000000000000000000000000000000D8
:1058D00000000000000000000000000000000000C8
:1058E00000000000000000000000000000000000B8
:1058F00000000000000000000000000000000000A8
:105900000000000000000000000000000000000097
:105910000000000000000000000000000000000087
:105920000000000000000000000000000000000077
:105930000000000000000000000000000000000067
:105940000000000000000000000000000000000057
:105950000000546869732069732061205553422008
:105960004D656D6F72792044657669636520646565
:105970006D6F6E7374726174696F6E20666F720DF5
:105980000A746865204D4941545F53544D33322E9B
:10599000563220426F6172642077697468205354D4
:1059A0002053544D3332463130335A4354362E0D42
:1059B0000A000000000000000000000000000000DD
:1059C00000000000000000000000000000000000D7
:1059D00000000000000000000000000000000000C7
:1059E00000000000000000000000000000000000B7
:1059F00000000000000000000000000000000000A7
:106150000000000023490008293E0008333E0008E3
:10616000000000000000000000000000000000002F
:10617000000000000000000000000000000000001F
:10618000000000000000000000000000000000000F
:1061900000000000120110010000000851C2031CA1
:1061A000000104204A010902200001010080320997
:1061B0000400000208065064070581024000000741
:1061C00005020240000000040309041C034D0049BD
:1061D0000041005400200053006F006600740077F7
:1061E000006100720065002A034D0049004100541F
:1061F000002000530054004D0030003300560032A0
:1062000000200020004D0065006D006F00720079D5
:10621000001A03440045004D004F002000300031BB
:10622000002E0030003000200020000E034D0065DD
:10623000006D006F00720079000000005C620008D1
:106240000000006060020000C04B00087862000897
:10625000600200606C220000045100080010FF4D35
:106260004941545F53544D33322044454D4F01F55D
:08627000045D60004000000025
:04000005080031318D
:00000001FF
