:020000040800F2
:1030000000040020453100087534000877340008BA
:103010007B3400087F34000883340008000000007F
:1030200000000000000000000000000089340008DB
:1030300087340008000000008B3400088D3400083D
:103040008F34000891340008933400089534000848
:1030500097340008993400089B3400089D34000818
:103060009F340008A1340008A3340008A5340008E8
:10307000A7340008A9340008AB340008AD340008B8
:10308000AF340008B1340008B3340008B534000888
:10309000B7340008B9340008BB340008BD34000858
:1030A000BF340008C1340008C3340008C534000828
:1030B000C7340008C9340008CB340008CD340008F8
:1030C000CF340008D1340008D3340008D5340008C8
:1030D000D7340008D9340008DB340008DD34000898
:1030E000DF340008E1340008E3340008E534000868
:1030F000E7340008E9340008EB340008ED34000838
:10310000EF340008F1340008F3340008F534000807
:10311000F7340008F9340008FB340008FD340008D7
:10312000FF340008013500080335000805350008A4
:10313000DFF80CD001F06EF80048004709350008B0
:10314000000400204FF48A70134908604FF4F070B7
:10315000124908601248134908604FF0BB30124909
:1031600008601248124908604FF0BB3011490860EE
:103170001148124908601248124908600E48124965
:10318000086041F211004FF0204108604FF40070D8
:103190000E4908600E480047141002401810024003
:1031A000BB44BBB40014014004140140BB4444B40C
:1031B0000018014004180140BBBBBB44001C014087
:1031C0004444BBBB041C014000200140040000A09B
:1031D000313100081220954908607047944895499C
:1031E00048609548086000BF00BF9248006810F42E
:1031F000003FFAD000BF8F48006810F0007FFAD07F
:1032000000BF8C48406800F00C000828F9D17047D6
:103210004FF4405089490860704745F2555088493D
:1032200008600220486040F69F7088604AF6AA2035
:1032300008604CF6CC400860704782484FF0E021AF
:10324000486106200861002088610846006940F056
:103250000100086170477748C06940F080507549A7
:10326000C8617948006840F4807077490860714807
:10327000006A40F001006F49086200BF6D48006AB3
:1032800010F0020FFAD000BF6A48006A40F4014013
:10329000684908626D48008840F010006C49A1F848
:1032A000040800206949091D088047F6FF70091DC0
:1032B00008800020654914310880091D0880091D17
:1032C00008803C20091D088001206149A1F8000800
:1032D0004FF0E020D0F8000140F008004FF0E0216E
:1032E000C1F800015A48B0F8040820F0100057490E
:1032F000088000BF5548008810F0200FFAD05248CF
:10330000006820F4807050490860704700BF00BF1B
:1033100000BF00BF70474748806940F0040045493E
:10332000886104204B49086000204B49C1F804081B
:103330004048806940F008003E49886100204749C4
:1033400008604FF033304449C1F8040C39488069B3
:1033500040F01000374988610020414908604FF46F
:103360008000486000BF00BF704700BF00BF00BFC3
:10337000704700BF00BF00BF00BF00BF00BF00BF5D
:1033800000BF00BF00BF00BF00BF00BF00BF00BF45
:1033900000BF704700BF00BF00BF00BF00BF00BF3D
:1033A00000BF00BF00BF00BF00BF70472148C06919
:1033B00040F000601F49C8610846C06940F0805075
:1033C000C8612148006840F480701F4908600020EF
:1033D000244908802449A1F8340C0846B0F8340C7C
:1033E00040F00300A1F8340C1748006820F4807006
:1033F000154908601B48001D008810F0040F07D015
:103400001A48006840F004004FF0E021C1F80001C4
:10341000704700B5FFF7DEFEFFF7E0FEFFF7F8FEAE
:10342000FFF779FF00BD12487047000000200240FE
:1034300002841D00001002408200010108ED00E03E
:1034400000300040FFB9DB0000700040042800405D
:10345000002000400008014000000140000C014035
:1034600000100140306C00400060004000E100E0CE
:1034700000512502704700BFFEE700BFFEE700BF16
:10348000FEE700BFFEE77047704770477047704720
:103490007047704770477047704770477047704774
:1034A0007047704770477047704770477047704764
:1034B0007047704770477047704770477047704754
:1034C0007047704770477047704770477047704744
:1034D0007047704770477047704770477047704734
:1034E0007047704770477047704770477047704724
:1034F0007047704770477047704770477047704714
:1035000070477047704700002DE9F05FFFF781FFBB
:1035100000F00CFB00F0B7FA00F07FF900F0EAF9D8
:1035200045A000F0F0F9802000F061FB40F22A3164
:1035300040F2422000F074FB8021084600F08EFB30
:103540004FF6FF78002776E040484149086008467A
:10355000006800F0A5FB3D483D49086000260024B6
:1035600012E0002506E03A480068405D064405F197
:10357000080085B2802DF6DB3548006800F58060D4
:1035800033490860601C84B2102CEADB00F081FA39
:103590008246BAF1010F08D137460121002000F020
:1035A00099F92CA000F0AFF945E0BAF1020F08D16B
:1035B000B0460121002000F08DF92BA000F0A3F906
:1035C00039E0A8EB070000282EDDA8EB0700001269
:1035D0000FFA80F901244FF0000BF61B13E00025D1
:1035E00003E0A6EB0906681C85B2A542F9DB002EB4
:1035F00006DD0BEB040000F0FF0BFF2C01DD04E007
:1036000000266004040C002EE9DC00BF1B48C068E3
:103610006BF30F201949C8600121002000F05AF90E
:1036200017A000F070F906E00121002000F052F927
:1036300018A000F068F987E74D4941545F53544D95
:1036400033322044454D4F2000000000000004604C
:1036500000000060536574204461726B2076616CD9
:103660007565202000000000536574206272696750
:1036700068742076616C75650000000000200140D0
:10368000446973706C61792076616C7565202020C7
:103690000000000052616E6765204572726F7220F3
:1036A000202020200000000000BF00BF0100A0F18A
:1036B0000100FBD1704710B5CD4800686FF30F00D3
:1036C00044F244410844CB49C1F8040CC8480830CE
:1036D000006820F08000C1F80C0CC5480830006874
:1036E00040F04000C249083108600A20FFF7DCFFC3
:1036F000C148006840F04000BF4908600A20FFF759
:10370000D3FFBB48001D0068C0F303200401BA4882
:10371000006820F04000B84908600A20FFF7C4FFA5
:10372000B548006840F04000B34908600A20FFF740
:10373000BBFFAF48001D0068C0F303200443AE4840
:10374000006820F04000AB49C1F80C080846D0F8EA
:10375000040C6FF30F0043F233310844A549C1F85C
:10376000040C204610BD10B500BFFFF7A4FF10F0F9
:10377000800FFAD110BD10B504469D48083000688E
:1037800020F040009B49C1F80C0C9B48006840F0B9
:103790004000C1F80C080846D0F80C0C64F30B206C
:1037A0009349083108600A20FFF77EFF92480068BD
:1037B00020F040008F49C1F80C080A20FFF774FF81
:1037C00010BD10B50446FFF7CEFF894808300068E9
:1037D00020F080008749C1F80C0C2011FFF7CBFFC7
:1037E0002046FFF7C8FF10BD10B50446FFF7BBFF2A
:1037F0007F480830006840F080007E49C1F80C0C1A
:103800002011FFF7B8FF2046FFF7B5FF10BD10B538
:1038100004462046FFF7E8FF10BD70B57748806981
:1038200040F0C0007549886173480C38006820F08A
:10383000706040F040706F49C1F800086C48001F8C
:10384000006820F07F4040F04C50C1F8000C084662
:10385000D0F8040C6FF30F0043F23331084464498D
:10386000086043F69820FFF71FFF614808300068A2
:1038700020F080005F49C1F80C0C0320FFF77BFFAC
:1038800041F20400FFF710FF0320FFF774FF6420EC
:10389000FFF70AFF0320FFF76EFF0220FFF76BFF21
:1038A0002820FFF78EFF0C20FFF78BFF0620FFF785
:1038B00088FF4020FFF785FF514C002504E0207869
:1038C000FFF7A5FF6D1C641C402DF8D38020FFF787
:1038D00078FF70BD70B504460D4605EB850004EB1E
:1038E000C000C6B206F07F008030C6B23046FFF797
:1038F00068FF70BD10B50120FFF763FF0021084687
:10390000FFF7E8FF10BD10B5044603E014F8010B03
:10391000FFF77DFF20780028F8D110BD70B5044670
:103920000D4604FB05F0142190FBF1F400260BE09A
:10393000052C04DD0520FFF76AFF641F03E0E0B2F9
:10394000FFF765FF02E0761CAE42F1DB00BF70BD01
:103950002DE9F04104460D46174629462046FFF75B
:10396000B9FF002612E0052F04DD0520FFF74FFF09
:103970007F1F0AE0F8B2FFF74AFF02E00020FFF7DE
:1039800046FF3046761C1028F8DB761C102EEADB4A
:10399000BDE8F081F0B500250124002304E004EB2C
:1039A00084077C005F1CFBB2571E9F42F7DC1BE0C4
:1039B000B1FBF4F66DB926B1012506F130070770A9
:1039C0000AE0012C02D13027077005E0202707709C
:1039D00002E006F130070770401CB1FBF4F704FB6E
:1039E00017110A27B4FBF7F4002CE1D1F0BD000059
:1039F000041C0140001001400C180140001002405E
:103A0000564200083448806940F48C70324988611D
:103A100032480068C0F313003149C1F8000C2F4848
:103A20000068304908432E49C1F8000C0846D0F818
:103A3000040C20F00F00C1F8040C0846D0F8040C68
:103A400040F00400C1F8040C274840686FF30F00F1
:103A5000254948600846406844F2444108432249E9
:103A60004860224840680020204948600846406875
:103A700040F03330486070471C48C06820F47F40F5
:103A80001A49C860704700B5FFF7BCFFFFF7F4FFA5
:103A900000BD124808300068C0F3401008B901208A
:103AA00070470E4808300068C0F3801008B9022043
:103AB000F6E70A4808300068C0F3C01008B90320D0
:103AC000EEE7064808300068C0F3002008B904207B
:103AD000E6E7FF20E4E7000000100240000C014090
:103AE000000001400000404400100140002001405F
:103AF0008A4800688A4908408A49C1F8000887480E
:103B00000068894908438749C1F80008704738B5FB
:103B100004460D4628128DF80000E8B28DF8010029
:103B200002222146684600F084F938BD10B500F045
:103B3000FAFA00F078F900F046FBFFF7D9FF774872
:103B40001030006840F020007649C1F8100808469F
:103B5000D0F8140840F01000C1F814080121F0203A
:103B6000FFF7D5FF40F20151C320FFF7D0FF00213E
:103B7000F020FFF7CCFF4FF409710120FFF7C7FFDA
:103B80004FF4EE710220FFF7C2FFA0210320FFF7E0
:103B9000BEFF4FF4C8610420FFF7B9FF8021092060
:103BA000FFF7B5FF88210520FFF7B1FF1921062097
:103BB000FFF7ADFF13210A20FFF7A9FFB0212B204B
:103BC000FFF7A5FFCF212C20FFF7A1FFCF212D204C
:103BD000FFF79DFFB0212E20FFF799FF0121F02074
:103BE000FFF795FF00210920FFF791FF10BD10B5E9
:103BF00004460021F020FFF78AFF21460920FFF745
:103C000086FF00BF45480830006810F0080FF9D162
:103C100000BF42480830006810F0080FF9D010BD0E
:103C200070B504460D460021F020FFF770FF2146D5
:103C30000120FFF76CFF29460220FFF768FF00BF55
:103C400036480830006810F0080FF9D100BF33483B
:103C50000830006810F0080FF9D070BD70B5044648
:103C60000D460021F020FFF752FF21460320FFF709
:103C70004EFF29460420FFF74AFF2C4804802C48B9
:103C8000058000BF25480830006810F0080FF9D102
:103C900000BF22480830006810F0080FF9D070BD4E
:103CA00070B50446264600BF1C480830006810F076
:103CB000080FF9D100BF19480830006810F0080F4C
:103CC000F9D0002517E000BF14480830006810F054
:103CD000040FF9D016480188304600F07AFA1448EB
:103CE0000088064400BF0D480830006810F0040F3B
:103CF000F9D1681C85B20D4800888542E3DB70BDB0
:103D000073B56C4601AD0222C621204600F091F841
:103D10000222C821284600F08CF87CBD0018014022
:103D2000FF0000FF00100140004433000400006069
:103D300006000060AC48806940F00800AA4988612C
:103D4000AA48006820F47F40A949C1F8040C08463D
:103D5000D0F8040C40F47F40C1F8040C7047A2482E
:103D6000C06940F48000A049C8612420A1490880AE
:103D7000A148B0F8000820F001009F49A1F8000810
:103D80000846B0F8000820F00100A1F80008084635
:103D9000B0F81C0840F40040A1F81C080846B0F830
:103DA0001C0820F480409349183108801320924960
:103DB000A1F820080846B0F81C0840F03C00A1F823
:103DC0001C080846B0F8000840F00100A1F80008FF
:103DD0000846B0F8000820F00200A1F800080846E4
:103DE000B0F8000820F00800A1F800080846B0F874
:103DF000000840F48060A1F800080846B0F8080800
:103E000040F48040A1F808080846B0F8080820F4FB
:103E10000040A1F808080846B0F8000840F001008A
:103E2000A1F80008704700B5FFF784FFFFF797FF80
:103E300000BD10B56F4B1B1F1B8843F480736E4C85
:103E4000A4F8003800BF6B4B10331B8813F0010F30
:103E5000F9D0BA23674C0C34238000BF654B103374
:103E60001B8813F0020FF9D0624B14331B88624B8E
:103E7000A3F8101800BF5F4B10331B8813F0800F9E
:103E8000F9D00BE010F8013B5A4C0C34238000BFF2
:103E9000584B10331B8813F0800FF9D01300A2F198
:103EA0000104A2B2EED1534B1B1F1B8843F40073D5
:103EB000514CA4F8003800BF4E4B14331B8813F04C
:103EC000010FF9D110BD10B54A4B1B1F1B8843F4DD
:103ED0008073494CA4F8003800BF464B10331B8850
:103EE00013F0010FF9D0BA23424C0C34238000BFE9
:103EF000404B10331B8813F0020FF9D03D4B1433A5
:103F00001B883D4BA3F8101800BF3A4B10331B8899
:103F100013F0800FF9D0374B1B1F1B8843F48073BD
:103F2000354CA4F8003800BF324B10331B8813F017
:103F3000010FF9D0BB232F4C0C34238000BF2D4B35
:103F400010331B8813F0020FF9D02A4B14331B884F
:103F50000CE0284B10331B8813F0400F06D0254B84
:103F60000C331B880370401C531E9AB2002AF0D1F8
:103F7000204B1B1F1B8823F480631F4CA4F80038C0
:103F80002346B3F8003843F40073A4F8003800BFA8
:103F9000184B14331B8813F0010FF9D1154B1B1F5D
:103FA0001B8843F48063144CA4F8003810BD00BF94
:103FB0001048001F008840F480700F49A1F80008E5
:103FC0000C4810300088BA20A1F8100809481030B9
:103FD000008810F0020FEBD006481030008820F463
:103FE0008060A1F81408704700100240040C0140E2
:103FF0000000014004580040005000404D48006857
:1040000020F0F0004C49C1F800080846D0F800083C
:1040100040F0B000C1F800080846D0F8000820F0D1
:104020007060C1F800080846D0F8000840F08060D1
:10403000C1F8000870474148C06940F001003F499D
:10404000C8610846C06940F00200C8618804008861
:1040500020F4447089040880002008850B2088859E
:104060001020088406200887000308830846008B78
:1040700040F4006008830846008840F08000088013
:104080000846008840F0010008802D48008820F490
:104090004470A1F8000400202949283108808815BF
:1040A0008105A1F82C048005B0F8200420F001005F
:1040B000A1F820040846B0F8180420F00300A1F885
:1040C00018040846B0F8180440F00100A1F81804DC
:1040D0000846B0F8180420F0F000A1F818040846CB
:1040E000B0F8200420F00200A1F820040846B0F83F
:1040F000200440F00100A1F820040846B0F818049C
:1041000020F00C00A1F818040846B0F80C0440F4A4
:104110000070A1F80C040846B0F8000440F001005B
:10412000A1F80004704700B5FFF768FFFFF783FFB1
:1041300000BD0000000801400000014000100240E6
:10414000000400403048806940F020002E4988611A
:104150004FF044302D49086070472B48406940F0CB
:10416000010029494861294808302949486708461B
:10417000C06E20F01000C8664FF6FF700867084652
:10418000C06E20F04000C8660846C06E40F0800057
:10419000C8660846C06E20F44070C8660846C06E07
:1041A00020F44060C8660846C06E20F02000C86653
:1041B0000846C06E40F44050C8660846C06E20F401
:1041C0008040C866704700B5FFF7BCFFFFF7C5FF2A
:1041D00000BD0F4A90671167D26E42F001020C4B8E
:1041E000DA6600BF0A4A126812F4001FFAD0084AC1
:1041F000526842F4E002064B5A601A46D26E22F030
:104200000102DA6670470000001002400010014011
:1042100000000240064C074D06E0E06840F0010354
:1042200094E8070098471034AC42F6D3FEF784FFB9
:1042300098420008A842000802E008C8121F08C1FE
:10424000002AFAD170477047002001E001C1121F17
:10425000002AFBD170470000000000000000101091
:1042600010101010101018181818181818181C1CF6
:104270001C1C1C1C1C1C1E1E1E1E1E1E1E1E1F1F68
:104280001F1F1F1F1F1F0000000000000000000074
:104290000000000000000000A842000800000060CC
:1042A0000800000038420008000000000000000084
:04000005080031318D
:00000001FF
