:020000040800F2
:103000000004002045310008C1340008C334000822
:10301000C7340008CB340008CF340008000000009B
:10302000000000000000000000000000D53400088F
:10303000D334000800000000D7340008D934000859
:10304000DB340008DD340008DF340008E134000818
:10305000E3340008E5340008E7340008E9340008E8
:10306000EB340008ED340008EF340008F1340008B8
:10307000F3340008F5340008F7340008F934000888
:10308000FB340008FD340008FF3400080135000857
:10309000153B000803350008053500080735000812
:1030A000093500080B3500080D3500080F350008FC
:1030B00011350008133500081535000817350008CC
:1030C000193500081B3500081D3500081F3500089C
:1030D000213500082335000825350008273500086C
:1030E000293500082B3500082D3500082F3500083C
:1030F000313500083335000835350008373500080C
:10310000393500083B3500083D3500083F350008DB
:1031100041350008433500084535000847350008AB
:10312000493500084B3500084D3500084F3500087B
:10313000DFF80CD001F0F6FD0048004775340008B8
:10314000000400204FF48A70134908604FF4F070B7
:10315000124908601248134908604FF0BB30124909
:1031600008601248124908604FF0BB3011490860EE
:103170001148124908601248124908600E48124965
:10318000086041F211004FF0204108604FF40070D8
:103190000E4908600E480047141002401810024003
:1031A000BB44BBB40014014004140140BB4444B40C
:1031B0000018014004180140BBBBBB44001C014087
:1031C0004444BBBB041C014000200140040000A09B
:1031D000313100081220954908607047944895499C
:1031E00048609548086000BF00BF9248006810F42E
:1031F000003FFAD000BF8F48006810F0007FFAD07F
:1032000000BF8C48406800F00C000828F9D17047D6
:103210004FF4405089490860704745F2555088493D
:1032200008600220486040F69F7088604AF6AA2035
:1032300008604CF6CC400860704782484FF0E021AF
:10324000486106200861002088610846006940F056
:103250000100086170477748C06940F080507549A7
:10326000C8617948006840F4807077490860714807
:10327000006A40F001006F49086200BF6D48006AB3
:1032800010F0020FFAD000BF6A48006A40F4014013
:10329000684908626D48008840F010006C49A1F848
:1032A000040800206949091D088047F6FF70091DC0
:1032B00008800020654914310880091D0880091D17
:1032C00008803C20091D088001206149A1F8000800
:1032D0004FF0E020D0F8000140F008004FF0E0216E
:1032E000C1F800015A48B0F8040820F0100057490E
:1032F000088000BF5548008810F0200FFAD05248CF
:10330000006820F4807050490860704700BF00BF1B
:1033100000BF00BF70474748806940F0040045493E
:10332000886104204B49086000204B49C1F804081B
:103330004048806940F008003E49886100204749C4
:1033400008604FF033304449C1F8040C39488069B3
:1033500040F01000374988610020414908604FF46F
:103360008000486000BF00BF704700BF00BF00BFC3
:10337000704700BF00BF00BF00BF00BF00BF00BF5D
:1033800000BF00BF00BF00BF00BF00BF00BF00BF45
:1033900000BF704700BF00BF00BF00BF00BF00BF3D
:1033A00000BF00BF00BF00BF00BF70472148C06919
:1033B00040F000601F49C8610846C06940F0805075
:1033C000C8612148006840F480701F4908600020EF
:1033D000244908802449A1F8340C0846B0F8340C7C
:1033E00040F00300A1F8340C1748006820F4807006
:1033F000154908601B48001D008810F0040F07D015
:103400001A48006840F004004FF0E021C1F80001C4
:10341000704700B5FFF7DEFEFFF7E0FEFFF7F8FEAE
:10342000FFF779FF00BD12487047000000200240FE
:1034300002841D00001002408200010108ED00E03E
:1034400000300040FFB9DB0000700040042800405D
:10345000002000400008014000000140000C014035
:1034600000100140306C00400060004000E100E0CE
:103470000051250210B5FFF7CCFF00F087F840207F
:1034800000F0E5F84FF4EE714FF4097000F0F8F831
:103490004FF44071C82000F011F94FF4163106487E
:1034A00000F0CDFB054800F0CFFB00F0B9F901209A
:1034B00000F0EEF900BFFEE754000060013700089D
:1034C000704700BFFEE700BFFEE700BFFEE700BF9A
:1034D000FEE7704770477047704770477047704706
:1034E0007047704770477047704770477047704724
:1034F0007047704770477047704770477047704714
:103500007047704770477047704770477047704703
:1035100070477047704770477047704770477047F3
:1035200070477047704770477047704770477047E3
:1035300070477047704770477047704770477047D3
:1035400070477047704770477047704770477047C3
:103550008A4800688A4908408A49C1F800088748B3
:103560000068894908438749C1F80008704738B5A1
:1035700004460D4628128DF80000E8B28DF80100CF
:1035800002222146684600F0EEFB38BD10B500F07F
:1035900064FD00F0E2FB00F0B0FDFFF7D9FF7748D3
:1035A0001030006840F020007649C1F81008084645
:1035B000D0F8140840F01000C1F814080121F020E0
:1035C000FFF7D5FF40F20151C320FFF7D0FF0021E4
:1035D000F020FFF7CCFF4FF409710120FFF7C7FF80
:1035E0004FF4EE710220FFF7C2FFA0210320FFF786
:1035F000BEFF4FF4C8610420FFF7B9FF8021092006
:10360000FFF7B5FF88210520FFF7B1FF192106203C
:10361000FFF7ADFF13210A20FFF7A9FFB0212B20F0
:10362000FFF7A5FFCF212C20FFF7A1FFCF212D20F1
:10363000FFF79DFFB0212E20FFF799FF0121F02019
:10364000FFF795FF00210920FFF791FF10BD10B58E
:1036500004460021F020FFF78AFF21460920FFF7EA
:1036600086FF00BF45480830006810F0080FF9D108
:1036700000BF42480830006810F0080FF9D010BDB4
:1036800070B504460D460021F020FFF770FF21467B
:103690000120FFF76CFF29460220FFF768FF00BFFB
:1036A00036480830006810F0080FF9D100BF3348E1
:1036B0000830006810F0080FF9D070BD70B50446EE
:1036C0000D460021F020FFF752FF21460320FFF7AF
:1036D0004EFF29460420FFF74AFF2C4804802C485F
:1036E000058000BF25480830006810F0080FF9D1A8
:1036F00000BF22480830006810F0080FF9D070BDF4
:1037000070B50446264600BF1C480830006810F01B
:10371000080FF9D100BF19480830006810F0080FF1
:10372000F9D0002517E000BF14480830006810F0F9
:10373000040FF9D016480188304600F0E4FC144824
:103740000088064400BF0D480830006810F0040FE0
:10375000F9D1681C85B20D4800888542E3DB70BD55
:1037600073B56C4601AD0222C621204600F0FBFA7B
:103770000222C821284600F0F6FA7CBD001801405C
:10378000FF0000FF00100140004433000000006013
:103790000200006030B500F00F02FF4B042404FB70
:1037A0000233D3F8001C10F0800F09D048F6CF7315
:1037B0000B40F94C042505FB0244C4F8003C08E02A
:1037C0004CF68F730B40F44C042505FB0244C4F8FF
:1037D000003C30BD70B500F00F02EF4C042505FB36
:1037E0000244D4F8003C10F0800F0CD001F03004FB
:1037F0005C4048F6BF752C40E74D042606FB025599
:10380000C5F8004C0BE001F440545C404BF68F755A
:103810002C40E14D042606FB0255C5F8004C70BD56
:10382000002004E0DD49095CDD4A1154401CB0F57C
:10383000805FF7D3DB49C96941F40001D94AD161FE
:10384000D949096841F01002D7490A60D749096887
:1038500041F480114FF0E022C2F80011D14989698A
:1038600041F02001CF4A9161D149D1F8001421F4EF
:103870007061CF4AC2F800141146D1F8001441F427
:10388000E061CC4A11600421CA4A143211607047C9
:103890000121C94A11600021BF4AC2F8441C18B175
:1038A0001115C54A116002E00321C34A1160704737
:1038B0000020C149091D08604FF41C40B649C1F8F9
:1038C000400C3020BD4908800020B349C1F8500C9D
:1038D000BA480088BA4909680860B84800880830C2
:1038E000B649088008460088B54909688860B34829
:1038F00000880830B149088000BF4FF48050B049BB
:103900000968C8604FF44850AB49403908608020CE
:10391000A149C1F84C0C7047A748006840F0080066
:103920009D49C1F8400C0846D0F8400C40F0040016
:10393000C1F8400C704770479F48006820F00800AD
:103940009549C1F8400C7047704740F080019A4A91
:103950000C321160704700BF704710B5837803F0D8
:103960000F028188837813F0800F0AD0934B1B8855
:10397000934C246804EB021423604B1C23F00101D8
:1039800020E08E4B1B888E4C246804EB0214A3604D
:103990003E290ED901F11F0323F01F010123C3EBC0
:1039A000411343F40043864C246804EB0214E360A3
:1039B00008E04B1C23F001014B02814C246804EB0E
:1039C0000214E3607D4B1B880B447C4C2380C3783E
:1039D00013F0030306D0012B07D0022B08D0032BD2
:1039E00011D10DE04FF400710DE04FF480610AE059
:1039F00000210123934000230BB141F4807102E0C8
:103A00004FF4C06100BF00BF1143634B042404FBAB
:103A10000233C3F8001C10BD704710B5044643F2D2
:103A200030012046FFF7D6FE10BD10B50446002138
:103A30002046FFF7CFFE10BD10B504462046FFF725
:103A4000A9FE10BD10B5044641F210012046FFF753
:103A5000C1FE10BD10B5044643F230012046FFF709
:103A6000B9FE10BD2DE9F04304460D4604F00F06E3
:103A70005348006800EB061080685249022202FB9E
:103A800000194F48006800EB0610C068C0F3090732
:103A90004FF0000805E059F8041B2980AD1C08F11F
:103AA0000108781CB8EB500FF5D34FF44051204675
:103AB000FFF790FE3846BDE8F0832DE9F043044659
:103AC0000D46164604F00F083D48006800EB08104C
:103AD00000683C49022202FB0019002704E0288804
:103AE00049F8040BAD1C7F1C701CB7EB500FF6D3CC
:103AF0003348006800EB0810466030212046FFF78D
:103B000069FE3046BDE8F0832B4808300068C0F3FA
:103B10000A00704770B52848001D046814F4806FCF
:103B200008D0FFF7C5FE00F00FFB6FF4806022495C
:103B3000091D086014F4006F08D0FFF7EDFE00F0D7
:103B40000EFB6FF400601C49091D086014F4805FCF
:103B500008D0FFF7F1FE00F00AFB6FF48050164921
:103B6000091D086014F4007F04D06FF4007012493E
:103B7000091D08605CE06FF400400F49091D0860F2
:103B800004F00F050448042101FB0500D0F8006C87
:103B900016F4004F35D017E0005000405E52000888
:103BA000545802600010024014E400E000E100E01C
:103BB0000010014000140140405C0040080000601B
:103BC000040000600060004026F4004048F68F7159
:103BD00008401F49042202FB0511C1F8000C1D48D2
:103BE00050F8250068B116F4006F05D0194850F858
:103BF00025100120884704E0164850F825100220BF
:103C0000884716F0800F13D026F0800048F68F7199
:103C100008400F49042202FB0511C1F8000C0D48B1
:103C200050F8250020B10B4850F825100320884794
:103C300009480068044610F4004F9CD170BD074A43
:103C40001060074A1160704706490860704700001D
:103C50000050004060620008445C00401C000060AE
:103C60002000006024000060AC48806940F008003B
:103C7000AA498861AA48006820F47F40A949C1F890
:103C8000040C0846D0F8040C40F47F40C1F8040C42
:103C90007047A248C06940F48000A049C861242050
:103CA000A1490880A148B0F8000820F001009F4910
:103CB000A1F800080846B0F8000820F00100A1F8BB
:103CC00000080846B0F81C0840F40040A1F81C08A1
:103CD0000846B0F81C0820F4804093491831088049
:103CE00013209249A1F820080846B0F81C0840F0BB
:103CF0003C00A1F81C080846B0F8000840F001009C
:103D0000A1F800080846B0F8000820F00200A1F869
:103D100000080846B0F8000820F00800A1F80008E4
:103D20000846B0F8000840F48060A1F80008084692
:103D3000B0F8080840F48040A1F808080846B0F838
:103D4000080820F40040A1F808080846B0F8000868
:103D500040F00100A1F80008704700B5FFF784FFAC
:103D6000FFF797FF00BD10B56F4B1B1F1B8843F477
:103D700080736E4CA4F8003800BF6B4B10331B8867
:103D800013F0010FF9D0BA23674C0C34238000BF25
:103D9000654B10331B8813F0020FF9D0624B1433BC
:103DA0001B88624BA3F8101800BF5F4B10331B88B1
:103DB00013F0800FF9D00BE010F8013B5A4C0C3493
:103DC000238000BF584B10331B8813F0800FF9D0AD
:103DD0001300A2F10104A2B2EED1534B1B1F1B88AA
:103DE00043F40073514CA4F8003800BF4E4B143319
:103DF0001B8813F0010FF9D110BD10B54A4B1B1FE2
:103E00001B8843F48073494CA4F8003800BF464B2C
:103E100010331B8813F0010FF9D0BA23424C0C3435
:103E2000238000BF404B10331B8813F0020FF9D0E2
:103E30003D4B14331B883D4BA3F8101800BF3A4B81
:103E400010331B8813F0800FF9D0374B1B1F1B88D2
:103E500043F48073354CA4F8003800BF324B103364
:103E60001B8813F0010FF9D0BB232F4C0C34238097
:103E700000BF2D4B10331B8813F0020FF9D02A4BD3
:103E800014331B880CE0284B10331B8813F0400FB1
:103E900006D0254B0C331B880370401C531E9AB26E
:103EA000002AF0D1204B1B1F1B8823F480631F4C7A
:103EB000A4F800382346B3F8003843F40073A4F89C
:103EC000003800BF184B14331B8813F0010FF9D1D1
:103ED000154B1B1F1B8843F48063144CA4F8003857
:103EE00010BD00BF1048001F008840F480700F49CB
:103EF000A1F800080C4810300088BA20A1F810087A
:103F000009481030008810F0020FEBD0064810303E
:103F1000008820F48060A1F8140870470010024067
:103F2000040C0140000001400458004000500040D3
:103F30004D48006820F0F0004C49C1F800080846E0
:103F4000D0F8000840F0B000C1F800080846D0F8EA
:103F5000000820F07060C1F800080846D0F800089A
:103F600040F08060C1F8000870474148C06940F0E7
:103F700001003F49C8610846C06940F00200C861BD
:103F80008804008820F44470890408800020088593
:103F90000B208885102008840620088700030883EA
:103FA0000846008B40F4006008830846008840F013
:103FB000800008800846008840F0010008802D48F5
:103FC000008820F44470A1F8000400202949283119
:103FD000088088158105A1F82C048005B0F820041C
:103FE00020F00100A1F820040846B0F8180420F0E1
:103FF0000300A1F818040846B0F8180440F00100C6
:10400000A1F818040846B0F8180420F0F000A1F850
:1040100018040846B0F8200420F00200A1F820049B
:104020000846B0F8200440F00100A1F8200408463A
:10403000B0F8180420F00C00A1F818040846B0F8F5
:104040000C0440F40070A1F80C040846B0F8000419
:1040500040F00100A1F80004704700B5FFF768FFC9
:10406000FFF783FF00BD0000000801400000014091
:1040700000100240000400403048806940F02000F9
:104080002E4988614FF044302D49086070472B4815
:10409000406940F001002949486129480830294910
:1040A00048670846C06E20F01000C8664FF6FF70E3
:1040B00008670846C06E20F04000C8660846C06E1B
:1040C00040F08000C8660846C06E20F44070C866A4
:1040D0000846C06E20F44060C8660846C06E20F0F6
:1040E0002000C8660846C06E40F44050C8660846C6
:1040F000C06E20F48040C866704700B5FFF7BCFF73
:10410000FFF7C5FF00BD0F4A90671167D26E42F0FE
:1041100001020C4BDA6600BF0A4A126812F4001F53
:10412000FAD0084A526842F4E002064B5A601A4636
:10413000D26E22F00102DA667047000000100240E1
:10414000001001400000024010B500F061FC214861
:10415000006820F480402049C1F80C0C10BD1D48B7
:10416000006840F400401C49C1F80C0C7047194825
:10417000006820F400401849C1F80C0C704717483B
:10418000007838B11348006840F480401249C1F803
:104190000C0C06E00F48006820F480400E49C1F87E
:1041A0000C0C704710B5044600F0C2FB10BD10B5F2
:1041B000044600F0E7FB10BD70477047704770473A
:1041C0007047704770477047704770477047704737
:1041D000704700000C0C0140000001402B00006003
:1041E000F848006820F44050F749C1F80C0C002052
:1041F000F6490870012070470020F5490870012039
:10420000704710B5F3480068402801D9402401E008
:10421000F0480468F04800682044B0F5005F06D913
:10422000ED480068C0F500540420E8490870EB48E8
:10423000E94A1268811822468120FFF73EFCE648D1
:1042400000682044E4490860E2480068001BE14936
:104250000860E3488068001BE1498860DD48006829
:1042600010B90320D9490870D8480078022809D02D
:10427000D448006820F48050D349C1F80C0C0020C9
:10428000D749087310BD10B5D648D54908600D222E
:104290008120FFF712FC0520CC49087010BD10B535
:1042A000CD480068D04909780844B0F5005F0AD9C4
:1042B000C94800684042CC4908700520C3490870CD
:1042C0000220FFF7BFFB002407E0C848005DC24999
:1042D00009682144C14A5054641CC3480078844290
:1042E000F3D3BD480068C04909780844BA4908605A
:1042F000B8480068BC490978401AB6490860B8480F
:104300008068B9490978401AB5498860B1480068A1
:1043100018B1AE48007805280BD1AA48006820F4EF
:104320000050A949C1F80C0C0020AD490873FFF7F3
:10433000AAFF10BD10B5A8480068AB490978084429
:10434000B0F5005F0AD9A44800684042A649087049
:1043500005209E4908700220FFF774FB00240DE041
:104360009D48006820449D49085CA049095D884239
:1043700003D000209E49086004E0641C9A4800783D
:104380008442EDD300BF94480068974909780844F7
:10439000914908608F48006893490978401A8D490F
:1043A00008608F48806890490978401A8C49886075
:1043B0008848006818B185480078052809D18C48DC
:1043C000006808B9012000E0002085490873FFF764
:1043D0005AFF10BD10B58748407C01068548807C97
:1043E00041EA00418348C07C41EA00218148007DC8
:1043F00041EA00046002784908607E48C17D807D02
:1044000041EA00246002734908607A4880680968BC
:1044100088420CD08120FFF715FB0220FFF712FB2A
:1044200002206F490873FFF72EFF002010BD012006
:10443000FCE710B56F48806830B9022068490873FE
:10444000FFF721FF002010BD6A48007B10F0800FAD
:1044500009D10220FFF7F6FA022061490873FFF73D
:1044600012FF0020EFE70120EDE710B561488068FA
:104470005D490978884203D25E4880685A490870CD
:104480005948027859498120FFF717FB03204F490B
:1044900008705348806854490978401A5049886028
:1044A0000020087310BD10B55248806858B15148BB
:1044B000007B10F0800F03D08120FFF7C3FA02E0E9
:1044C0000220FFF7BFFA002045490873FFF7DBFE23
:1044D00010BD10B5FFF7ADFF00B910BD7020434906
:1044E000087000204870022088700020C870087191
:1044F000487188710A20C871002008724872887259
:10450000C872302008730120487300208873C87374
:1045100008744874122034490870FFF7A6FFDCE7DE
:1045200010B5FFF786FF00B910BD00202F490870B5
:1045300080204870002088700120C87020200871F9
:104540008020487100208871C8714D200872492070
:104550004872412088725420C87220200873487322
:104560008873C87353200874542048744D2088748D
:104570003020C8743320087556204875322088755D
:104580002020C87508764420487649208876532034
:10459000C8764B2008773120487720208877C87765
:1045A000312081F820002E2081F82100302081F870
:1045B0002200202081F8230024200B490870FFF7F7
:1045C00054FFB1E70C0C01400000014018000060EE
:1045D0003900006014000060100000605458026050
:1045E000B37802605553425319000060547802605A
:1045F0000C0000609478026010B5FFF71AFF00B954
:1046000010BD0320F4490870002048708870C870FD
:104610000420F2490870FFF728FFF1E710B5FFF713
:1046200008FF00B910BD0020EB4908700620487053
:1046300000208870C870087148718871C87108209E
:10464000E6490870FFF711FFECE710B5FFF7F1FE40
:1046500000B910BD0020E0490870487088700F2034
:10466000C870002008714871022088710020C8714C
:104670000820DA490870FFF7F8FEEAE710B5FFF7FF
:10468000D8FE00B910BD0020D3490870487088706A
:104690000820C87000200871487188711020C87106
:1046A0000220087200204872022088720020C8721E
:1046B0000C20CA490870FFF7D8FEE3E770B5C84878
:1046C0000468C8480068402801D9402501E0C54871
:1046D0000568C54800682844C4490968884207D964
:1046E000C2480068C0490968451A0420C0490870DA
:1046F000BD48006821182A468120FFF7DEF9BA4834
:1047000000682844B8490860B6480068401BB549AD
:104710000860B8488068401BB6498860B1480068A6
:1047200010B90320B2490870B1480078022809D0B6
:10473000B148006820F48050B049C1F80C0C00204A
:10474000AC49087370BD10B5002404E0A248005DB8
:10475000AB490855641CA14800788442F6D39F48B1
:1047600000781F2874D1A6480068A6498842F9D16C
:10477000A34840689F494860A14880688860A04875
:10478000407B38B99E48807B012803DB9C48807BB6
:10479000102806DD00BF012096490873FFF773FD5E
:1047A000C5E09748C07B232837D011DC15282CD0D2
:1047B00007DCF0B103281FD0042820D012287BD1B9
:1047C0001EE01A2822D01B281DD01E28F7D11BE07E
:1047D0002F2863D006DC252822D0282823D02A2899
:1047E000EDD13FE0552814D05A2813D0D028E6D177
:1047F0006CE0FFF758FE90E0FFF76BFE8DE0CAE734
:10480000FFF78EFE89E0C6E7C5E7C4E7FFF7F4FED1
:1048100083E0C0E7FFF702FF7FE0FFF72FFF7CE0B8
:10482000FFF713FF79E0FFF7D5FDD0B17448007BA7
:1048300010F0800F0DD07048006840F480506F4930
:10484000C1F80C0C02206A490870FFF7DAFC08E096
:1048500064E00220FFF7F6F8022066490873FFF7CC
:1048600012FD5AE0FFF7B6FDB8B16548007B10F0C5
:10487000800F0AD16048006840F400505F49C1F8D9
:104880000C0C01205A49087007E08120FFF7DAF884
:10489000022058490873FFF7F6FC3EE0FFF79AFD47
:1048A00098B15748007B10F0800F06D10120504985
:1048B00008705549086008E02EE08120FFF7C2F833
:1048C00002204C490873FFF7DEFC26E0FFF782FD6B
:1048D00008B34B48007B10F0800F14D042480068AA
:1048E00020B93F480068494909688847424800683C
:1048F00040F480504149C1F80C0C02203C4908703A
:10490000FFF7DCFE07E00220FFF79CF802203949A0
:104910000873FFF7B8FC00E03DE708E08120FFF7EF
:1049200091F80220FFF78EF806203149087010BD7B
:1049300010B52F480078022806D0032813D0042889
:1049400014D005281CD117E02D48C07B282802D0A0
:10495000D02806D102E0FFF754FC02E0FFF7AEFEDC
:1049600000BF00BF0CE0FFF78EFC09E08120FFF7DD
:1049700069F8FFF788FC03E000201D49087000BFBC
:1049800000BF10BD10B514490220FFF76BF81349A2
:1049900008701748007810B1012812D102E0FFF723
:1049A000D2FE17E01648C07B2A2802D02F2806D155
:1049B00002E0FFF774FC02E0FFF7BCFC00BF00BFA1
:1049C00008E00220FFF73EF802200A490873FFF7CB
:1049D0005AFC00BF00BF10BD54780260190000608F
:1049E0001C000060140000601000006020000060E7
:1049F00018000060B37802600C0C01400000014018
:104A000094780260555342430C000060240000601B
:104A10000020BA490880BA490870BA4908704FF0B6
:104A20000110B94908600020B8490860704710B506
:104A3000B7490020FFF716F810BD10B5B5488088BB
:104A4000082801DD082401E0B2488488B1482246E4
:104A500001688020FFF731F80446AE480068204422
:104A6000AC49086008468088001B888010BD10B5DE
:104A7000A84801680020FEF7F5FF0446A548006835
:104A80002044A449086008468088001B888010BD27
:104A900010B5002211468020FFF70FF810BD10B5A9
:104AA0009D490020FEF7DEFF10BD10B50446082C1E
:104AB0006FD2DFE804F06E04D9EF6E6EEEEDFFF713
:104AC000B6FF93490978C809FEF7A6FF9048C08849
:104AD000904988808E480078C0F3411020B10128A9
:104AE00078D0022877D1B4E0894840780C2873D276
:104AF000DFE800F0060B8813881B2C313846587805
:104B000000F076F900B9A6E07DE0002000F0D8F9C9
:104B100000B9A0E0FFF7BCFF75E0012000F0D0F97C
:104B200000B998E0FFF7B4FF6DE079480078C0F372
:104B3000040040B97648807840F0800070490870E1
:104B4000FFF7A6FF00E086E000BF5CE000F0FCF8A5
:104B500000B980E057E00020FEF774FF00206D49A7
:104B6000888050E06A480078C0F3040028B965489E
:104B700068490860FFF761FF00E06CE000BF42E0B9
:104B800063480078C0F3040048B900F007FA08B998
:104B900061E0B1E0FFF77CFFFFF7F1FA00E05AE0D7
:104BA00000BF30E05A480078C0F30400012816D155
:104BB0005448007888B156480079584909788842A5
:104BC0000BDA534800795649084452490860FFF708
:104BD00034FF03E019E03DE014E03CE000E03AE09F
:104BE00000BF10E04A480078C0F30400012806D155
:104BF00000F09CFA00B92EE0FFF74AFF00E02AE03F
:104C000000BF00E027E000BF2CE041480078C0F37F
:104C1000040001281BD13E480079B8B93C484078CF
:104C2000FE2808D0FF2810D1FFF7DAFA10B1FFF7FD
:104C30002FFF0DE009E0FFF7DFFA28B136483549CC
:104C40000860FFF7FAFE03E000BF00BF03E002E0E8
:104C500008E000E000BF8020FEF7F4FE00202D49B0
:104C6000888000BF00BF47E029480078C00920D1F4
:104C700028488088F8B1FFF7FAFE26488088D0B926
:104C800023480078C0F3411028B1012810D103E077
:104C90002AE02DE010E0DEE71D480078C0F30400B4
:104CA000012802D0022802D100E0D4E7D3E7D2E7FE
:104CB000D1E7FFF7F4FE1FE015480078C00901288E
:104CC00002D1FFF7BAFE0EE00D48007810F0800F19
:104CD00009D00B48007800F07F00094908700846A9
:104CE0000078FEF732FE07E08020FEF7B3FE03E017
:104CF0000020FEF7AFFE00BF00BF10BD280000601F
:104D00002A0000602B0000602C0000603000006072
:104D10004C00006044000060390000603400006016
:104D200035000060064C074D06E0E06840F00103E6
:104D300094E8070098471034AC42F6D3FEF7FCF92C
:104D4000486300086863000870B524480078C0F321
:104D5000040010B1012833D12FE02048C078012889
:104D600004D0022807D0032823D118E01C481D498D
:104D7000086012251FE01C4C002604E0207808B1D2
:104D800060880444761C15488078B042F6D12078BB
:104D900008B9002070BD1348046065880BE00F4817
:104DA0008078124908440F49086008460068057871
:104DB00001E00020EEE700BF04E000BF0020E9E7CB
:104DC0000020E7E700BF07488088A84201D90549CD
:104DD0008D80FFF732FE0120DCE700004C00006010
:104DE000A062000844000060B2620008D3620008BC
:104DF00070B52B480078C0F3040020B1012808D01A
:104E0000022847D11AE0274827490860FFF715FE16
:104E100042E02648007870B1214800792449097899
:104E2000884208DA00202349088008461E490860A5
:104E3000FFF703FE01E0002070BD2DE01848007967
:104E400000F08F0414F0800F05D004F00F014FF430
:104E50008030884001E00120A040054613480078DA
:104E600010B914F00F0F12D11348006828420ED069
:104E700012480068284201D0012000E000200D49BE
:104E80000880084608490860FFF7D7FD01E00020C8
:104E9000D2E701E00020CFE700BF0120CCE700000F
:104EA0004C00006028000060440000602B0000609F
:104EB00034000060390000602C00006030000060A9
:104EC00070B5044630480078C0F3040020B10128D2
:104ED0001DD0022852D11CE02B484088012813D154
:104EE00044B1FEF731FD2948008840F0020027490F
:104EF00008800BE00020FEF727FD2448008820F002
:104F000002002249088001E0002070BD38E0002046
:104F1000FBE71D48007900F08F0515F0800F05D0E4
:104F200005F00F014FF48030884001E00120A840D7
:104F3000064617480078F0B115F00F0F1BD0154842
:104F40000068304217D01048408890B944B12846D4
:104F5000FEF778FD1048006830430F4908600CE008
:104F60002846FEF777FD0C480068B0430A49086000
:104F700003E00020C9E70020C7E701E00020C4E704
:104F800000BF0120C1E700004C0000602800006065
:104F90002B0000602C000060300000602DE9F04123
:104FA0005A48807800287ED0594D79E068780228E8
:104FB00004D004284FD005286ED14EE068795349BB
:104FC0008978884243D151488078524908702879BD
:104FD00051490870002703E000205049C8557F1C44
:104FE000042FF9D3012714E00120B8404C49096887
:104FF000084202D03846FEF718FD4FF48030B84022
:1050000047490968084203D047F08000FEF70DFDCC
:105010007F1C102FE8D34FF0011041490860002099
:10502000404908600120FEF796FCE87910F0C00FB7
:1050300006D03D48008840F001003B49088009E067
:105040003948008820F001003749088002E068886C
:10505000054425E020E0EE781EE0E6B9A87800F0EF
:105060008F0717F0800F05D007F00F014FF4803045
:10507000884001E00120B8400446294800682043E8
:10508000274908602846FEF768FC3846FEF7C5FC4D
:105090003846FEF7D1FC00BF00BF2878054400BFAA
:1050A0002878002800E001E080D124E000201949A0
:1050B0000870012714E00120B84019490968084226
:1050C00002D03846FEF7B1FC4FF48030B8401449A6
:1050D0000968084203D047F08000FEF7A6FC7F1C59
:1050E000102FE8D34FF001100D49086000200D4942
:1050F0000860FEF730FC0548807806490978884248
:1051000002D10120BDE8F0810020FBE74C000060E7
:10511000B26200082B0000603400006035000060BF
:105120002C00006030000060280000602DE9F05F76
:105130003D48007810B90020BDE8F09F4FF0000B0B
:105140003A4C6CE06078022804D004280BD0052883
:1051500061D11BE0607934490978884202D06088C7
:1051600004445CE057E0A578E6784FF0000830484A
:105170000079A84209D12E488078B04205D14FF07D
:10518000010B2C48475D01464E5544E02848007904
:10519000A8423FD1A07800F08F0919F0800F05D008
:1051A00009F00F014FF48030884002E0012000FA3E
:1051B00009F082461E488078B04217D11E48006828
:1051C00040EA0A001C4908601C48006820EA0A00FE
:1051D0001A4908602046FEF7C0FB4846FEF71DFC52
:1051E0004846FEF729FC48EA0A0813E0BE4211D1FE
:1051F00018EA0A0F0ED11048006820EA0A000E498A
:1052000008600E48006820EA0A000C490860484619
:10521000FEF70BFC00BF00BF2078044400BF2078DD
:1052200000288FD1584687E72B000060B262000843
:105230004C000060350000602C0000603000006011
:1052400002E008C8121F08C1002AFAD1704770474F
:10525000002001E001C1121F002AFBD17047EB3C86
:10526000904D53444F53352E300002010100011080
:10527000004000F8020001000100000000000000F2
:1052800000000000297419022753544D3332785F0F
:1052900055534220464154313220202033C98ED10B
:1052A000BCF07B8ED9B800208EC0FCBD007C384E8F
:1052B000247D248BC199E83C01721C83EB3A66A1E2
:1052C0001C7C26663B07268A57FC750680CA028826
:1052D000560280C31073EB33C98A461098F76616DE
:1052E00003461C13561E03460E13D18B761160899C
:1052F00046FC8956FEB82000F7E68B5E0B03C348D8
:10530000F7F30146FC114EFE61BF0000E8E60072B3
:105310003926382D741760B10BBEA17DF3A66174D8
:10532000324E740983C7203BFB72E6EBDCA0FB7DA9
:10533000B47D8BF0AC9840740C487413B40EBB076A
:1053400000CD10EBEFA0FD7DEBE6A0FC7DEBE1CD09
:1053500016CD19268B551A52B001BB0000E83B0050
:1053600072E85B8A5624BE0B7C8BFCC746F03D7D01
:10537000C746F4297D8CD9894EF2894EF6C6069629
:105380007DCBEA030000200FB6C8668B46F86603A3
:10539000461C668BD066C1EA10EB5E0FB6C84A4A5F
:1053A0008A460D32E4F7E20346FC1356FEEB4A52FE
:1053B0005006536A016A10918B4618969233D2F7C1
:1053C000F691F7F64287CAF7761A8AF28AE8C0CCD5
:1053D000020ACCB80102807E020E7504B4428BF43E
:1053E0008A5624CD136161720B40750142035E0B36
:1053F000497506F8C341BB000060666A00EBB04E19
:10540000544C44522020202020200D0A52656D6FFC
:105410007665206469736B73206F72206F746865A2
:1054200072206D656469612EFF0D0A4469736B20FB
:105430006572726F72FF0D0A507265737320616E30
:1054400079206B657920746F207265737461727452
:105450000D0A00000000000000ACCBD855AAF8FFF0
:10546000FFFFFFFFFF0F0000000000000000000032
:10547000000000000000000000000000000000002C
:10548000000000000000000000000000000000001C
:10549000000000000000000000000000000000000C
:1054A00000000000000000000000000000000000FC
:1058500000000000000000000000000000005354A1
:105860004D3332785F55534220280000000000007D
:105870000000000000000000000000000000E545FE
:1058800041444D4520205458542000000000210080
:10589000BB320000DC83BB32020057000000E5523F
:1058A000006500610064004D000F007365002E006C
:1058B00074007800740000000000FFFFFFFFE54562
:1058C00041444D4520205458542000879971453754
:1058D000453700004F68453702005E000000415226
:1058E000006500610064004D000F007365002E002C
:1058F00074007800740000000000FFFFFFFF5245B5
:1059000041444D4520205458542000879971453713
:105910004C370000324D4C3702005F0000000000A1
:105920000000000000000000000000000000000077
:105930000000000000000000000000000000000067
:105940000000000000000000000000000000000057
:105950000000000000000000000000000000000047
:105960000000000000000000000000000000000037
:105970000000000000000000000000000000000027
:105980000000000000000000000000000000000017
:105990000000000000000000000000000000000007
:1059A00000000000000000000000000000000000F7
:1059B00000000000000000000000000000000000E7
:1059C00000000000000000000000000000000000D7
:1059D00000000000000000000000000000000000C7
:1059E00000000000000000000000000000000000B7
:1059F00000000000000000000000000000000000A7
:105A00000000000000000000000000000000000096
:105A10000000000000000000000000000000000086
:105A20000000000000000000000000000000000076
:105A30000000000000000000000000000000000066
:105A40000000000000000000000000000000000056
:105A5000000000000000000000000000000054688A
:105A60006973206973206120555342204D656D6F25
:105A70007279204465766963652064656D6F6E7325
:105A800074726174696F6E20666F720D0A74686556
:105A9000204D4941545F53544D33322E56322042EB
:105AA0006F61726420776974682053542053544D99
:105AB0003332463130335A4354362E0D0A0000003B
:105AC00000000000000000000000000000000000D6
:105AD00000000000000000000000000000000000C6
:105AE00000000000000000000000000000000000B6
:105AF00000000000000000000000000000000000A6
:10626000AB4A0008A5410008AF410008000000004B
:10627000000000000000000000000000000000001E
:10628000000000000000000000000000000000000E
:1062900000000000000000000000000000000000FE
:1062A000120110010000000851C2031C000104206B
:1062B0004A010902200001010080320904000002A5
:1062C00008065064070581024000000705020240ED
:1062D000000000040309041C034D00490041005460
:1062E00000200053006F00660074007700610072A8
:1062F0000065002A034D004900410054002000536E
:106300000054004D003000330056003200200020C1
:10631000004D0065006D006F00720079001A0344A3
:106320000045004D004F002000300031002E0030AD
:10633000003000200020000E034D0065006D006F4E
:10634000007200790000000068630008000000602F
:106350005400000040520008BC6300085400006074
:106360006C780200505200080000000000600040FD
:10637000000000000000000000000000000000001D
:10638000000000000000000000000000000000000D
:1063900000000000000000000000000000000000FD
:1063A00000000000000000000000000000000000ED
:0C63B000000000000000000000000000E1
:04000005080031318D
:00000001FF
